:020000040000FA
:103C80001E308A00492E1E308A00871B3B2E871F5C
:103C9000472E3030900090309800831626309800E0
:103CA00003178715830118121A081A088F018E014D
:103CB0000C10B9261014B92610100C18562E0E0828
:103CC0008316990083120F0883169A008301181631
:103CD00020308400A5270F3A031D522E0F309C2759
:103CE000A5270F3A03196E2E0008043A0319812EF6
:103CF0000008053A031D7D2EA527840A841F702E17
:103D0000522E83160403A300A30320308400A001D5
:103D1000A1010008C226840A04082302031D892E7B
:103D200020080002031D522E840A21080002031DF0
:103D3000522EA001A10183012208840021088312D0
:103D400003178D0004088F002630840083010A3099
:103D500020020318522E20088207DF2EE82E0A2F99
:103D60007E2F242F582F6C2F7E2F00001E308A00AC
:103D70003B2E64000C180800871BBA2E871FBE2E2E
:103D8000080083162106A2002008A1002208A00036
:103D9000200E0F39A006200EF039A106A00E031048
:103DA000200D0318013EA106E039A106A00EA006D1
:103DB0000800C00101050002401E00000401063099
:103DC000A500A60183120317D9308D001E308F0085
:103DD000FD268B27C22604088B27C22683120317D1
:103DE0008D0A03198F0A83010130A502031CA60363
:103DF00026082504031DE82E812F831603178C1730
:103E00000C1400000000831203170E0884000C0835
:103E100083010800FD26C1260408C2268312031769
:103E20008D0A03198F0A0D080F39031D0A2F8627E3
:103E300083010130A502031CA60326082504031DE7
:103E40000A2F822F402E402E831203171F308F051A
:103E5000F8308D051E300F02403003190D02031C8F
:103E60003E2F20300F02003003190D0203183E2FA1
:103E7000831603178C01422F402E402E8316031702
:103E800084308C00831203170008840A8C00000819
:103E9000840A8E00AE27831203178D0A03198F0A36
:103EA00007300D05031D422F8301A50B242F7E2F04
:103EB000831603178C010C140C185C2F8312031744
:103EC0000C08831203178D0A03198F0A8B27C22649
:103ED0008301A50B582F812F840A00088312031732
:103EE0008C00831604308C00AF278C18752F83123A
:103EF00003178D0A8301A50B6C2F7E2F20088B27BB
:103F0000C2268627830104309C27662E831603135E
:103F100020088B27210883160313A3000F3A0319E7
:103F2000992F2308043A0319992F2308053A031DF2
:103F30009B2F05309C272308831264000C1E9E2FA4
:103F400083120313990083160800830164008C1EFA
:103F5000A72F1A0880000800402E402E8316640008
:103F600055308D00AA308D008C1400000000080030
:02400E00E12BA4
:02401000FF3F70
:00000001FF
